:020000040800F2
:100000001808002001010008090100080B01000880
:100010000D0100080F010008110100080000000098
:1000200000000000000000000000000013010008B4
:100030001501000800000000170100081901000860
:100040001B0100081B0100081B0100081B01000820
:100050001B0100081B0100081B0100081B01000810
:100060001B0100081B0100081B0100081B01000800
:100070001B0100081B0100081B0100081B010008F0
:100080001B0100081B0100081B0100081B010008E0
:100090001B0100081B0100081B0100081B010008D0
:1000A0001B0100081B0100081B0100081B010008C0
:1000B0001B0100081B0100081B0100081B010008B0
:1000C0001B0100081B0100081B0100081B010008A0
:1000D0001B0100081B0100081B0100081B01000890
:1000E0001B0100081B0100081B010008DFF80CD0F1
:1000F00000F02EF8004800473D0F000818080020C7
:100100000648804706480047FEE7FEE7FEE7FEE7B1
:10011000FEE7FEE7FEE7FEE7FEE7FEE7F10900087F
:10012000ED00000830B50B460146002020220124D6
:1001300009E021FA02F59D4205D303FA02F5491BB5
:1001400004FA02F52844151EA2F10102F1DC30BDCB
:10015000064C074D06E0E06840F0010394E8070014
:1001600098471034AC42F6D3FFF7C4FFA418000838
:10017000C418000808B50121082000F001FB202068
:10018000ADF8000001208DF8020004208DF8030076
:100190006946024800F06CF808BD0000000C014000
:1001A00008B50121082000F0EBFA2020ADF800008E
:1001B00001208DF8020010208DF8030069460248E6
:1001C00000F056F808BD0000000C014010B500BF5B
:1001D000FFF7E6FF01222021184800F0E1F80A208D
:1001E00000F02BFE00222021144800F0D9F8142042
:1001F00000F023FE01222021104800F0D1F800F089
:100200002AFE00F028FE00F026FEFFF7B3FF2021B3
:100210000A4800F0B8F878B900BF2021074800F07C
:10022000B2F80028F9D000BF2021044800F0ABF854
:100230000128F9D0012010BDCAE70000000C0140E0
:10024000014605E0002001E0421CD0B27B28FBDB28
:100250000A1EA1F10101F5D1704706E041F66501E2
:1002600000E0491E0029FCD1401E0028F6D170474D
:100270002DE9F0410246002500260020002300243D
:10028000002791F803C00CF00F0591F803C00CF0A3
:10029000100CBCF1000F03D091F802C04CEA050528
:1002A00091F800C0BCF1000F31D0146800202BE0A1
:1002B0004FF0010C0CFA00F3B1F800C00CEA030691
:1002C0009E4220D183004FF00F0C0CFA03F7BC4381
:1002D00005FA03FC4CEA040491F803C0BCF1280FB2
:1002E00006D14FF0010C0CFA00FCC2F814C00AE071
:1002F00091F803C0BCF1480F05D14FF0010C0CFA86
:1003000000FCC2F810C0401C0828D1D31460B1F81A
:1003100000C0BCF1FF0F34DD546800202EE000F176
:10032000080C4FF0010808FA0CF3B1F800C00CEA11
:1003300003069E4221D183004FF00F0C0CFA03F705
:10034000BC4305FA03FC4CEA040491F803C0BCF179
:10035000280F05D100F1080C08FA0CF8C2F8148037
:1003600091F803C0BCF1480F07D100F1080C4FF021
:10037000010808FA0CF8C2F81080401C0828CED3F7
:100380005460BDE8F0810246002093680B400BB139
:10039000012000E000207047416170470161704713
:1003A0000AB1016100E041617047000010B52021F1
:1003B0000748FFF7F3FF80210548FFF7EFFF802193
:1003C0000348FFF7E9FF20210148FFF7E5FF10BDD3
:1003D0000008014010B520210548FFF7DFFF80210C
:1003E0000348FFF7D9FF80210148FFF7D7FF10BD71
:1003F0000008014010B520210348FFF7CFFF20215E
:100400000148FFF7C9FF10BD0008014008B50121F0
:10041000102000F0B5F94FF40050ADF800001020A6
:100420008DF8030001208DF8020069460148FFF7AE
:100430001FFF08BD0010014010B54FF400510248E5
:10044000FFF7AAFF10BD00000010014010B54FF4E7
:1004500000510248FFF7A2FF10BD0000001001404C
:1004600070B5002418E004F1B000002100F07BF921
:100470000021084600F077F90021102000F073F900
:10048000002505E00121002000F06DF9681CC5B2CF
:10049000802DF7DB601CC4B2082CE4DB70BD0000CB
:1004A00008B50121042000F06BF9A020ADF8000090
:1004B00010208DF8030003208DF8020069463C48A7
:1004C000FFF7D6FEA0213A48FFF768FF4FF44870C7
:1004D000FFF7B6FE0021AE2000F045F900210846E6
:1004E00000F041F90021102000F03DF900214020EA
:1004F00000F039F90021B02000F035F90021812009
:1005000000F031F90021FF2000F02DF90021A12099
:1005100000F029F90021A62000F025F90021A820EB
:1005200000F021F900213F2000F01DF90021C82032
:1005300000F019F90021D32000F015F90021084638
:1005400000F011F90021D52000F00DF900218020E4
:1005500000F009F90021D82000F005F9002105205C
:1005600000F001F90021D92000F0FDF80021F12070
:1005700000F0F9F80021DA2000F0F5F8002112204F
:1005800000F0F1F80021DB2000F0EDF80021302030
:1005900000F0E9F800218D2000F0E5F8002114209A
:1005A00000F0E1F80021AF2000F0DDF808BD000008
:1005B0000008014070B5002412E02146002000F040
:1005C00037F8002508E005EBC411084A505C01210A
:1005D00000F0C9F8681CC5B2802DF4DB601CC4B201
:1005E000082CEADB1420FFF738FE70BD180000204D
:1005F00070B50021084600F01BF8002410E0E1B2BD
:10060000002000F015F8002507E005EBC411074AAB
:10061000505C012100F0A7F86D1C802DF5DB641CF7
:10062000082CECDBFFF7C6FF70BD000018000020AF
:1006300070B504460D4605F1B000002100F093F8B6
:10064000102141EA1410002100F08DF804F00F0091
:10065000002100F088F870BD10B50446FFF700FFD8
:10066000102307A20021084600F060F8102322465C
:100670000221002000F05AF8FFF7BAFF10BD000079
:10068000414C4552542100002DE9F04707460E46E3
:100690009046994600250024A8F12000C5B27F2F7E
:1006A00002DD0027B01CC6B2B9F1100F24D13146CB
:1006B0003846FFF7BDFF002408E004EB0511194A96
:1006C000505C012100F04FF8601CC4B2082CF4DB30
:1006D000701CC1B23846FFF7ABFF002409E004EB01
:1006E000051108310F4A505C012100F03CF8601CF4
:1006F000C4B2082CF3DB12E031463846FFF798FF0E
:1007000000240AE005EB4501074A02EB4101085DC0
:10071000012100F028F8601CC4B2062CF2DBBDE811
:10072000F0870000B41200088C1000082DE9F04199
:1007300004460F461546984600260FE0AA5D43463C
:1007400039462046FFF7A0FF04F10800C4B2782C18
:1007500002DD0024B81CC7B2701CC6B2A85D002818
:10076000ECD1BDE8F08170B504460D461DB1E0B294
:1007700000F06AFA02E0E0B200F050FA70BD00004A
:1007800029B1064A92690243044B9A6104E0034A84
:1007900092698243014B9A61704700000010024049
:1007A00030B500210022002400232D4D6D6805F096
:1007B0000C0121B1042905D0082923D105E0294DD8
:1007C000056022E0274D05601FE0254D6D6805F4AA
:1007D0007012234D6D6805F48034022505EB9242BA
:1007E0001CB9214D554305600BE01D4D6D6805F4A6
:1007F00000351DB11C4D5543056002E0194D5543B0
:10080000056002E0174D056000BF00BF144D6D6824
:1008100005F0F0010909154D6B5C0568DD40456088
:100820000F4D6D6805F4E061090A104D6B5C456879
:10083000DD4085600A4D6D6805F46051C90A0B4DB5
:100840006B5C4568DD40C560054D6D6805F4404151
:10085000890B074D6B5CC568B5FBF3F5056130BDD1
:100860000010024000127A0000093D000000002044
:100870001000002010B500F001F810BD0CB50020EC
:10088000019000903348006840F48030314908609E
:1008900000BF3048006800F4003000900198401C10
:1008A0000190009818B90198B0F5A06FF1D12948CE
:1008B000006800F4003010B10120009001E0002039
:1008C00000900098012843D12348006840F01000B0
:1008D000214908600846006820F0070008600846C3
:1008E000006840F0020008601A48406819494860F2
:1008F0000846406848600846406840F480604860A8
:100900000846406820F47C1048600846406840F47F
:10091000E81048600846006840F08070086000BF3A
:100920000C48006800F000700028F9D009484068C1
:1009300020F00300074948600846406840F0020084
:10094000486000BF0348406800F00C000828F9D157
:100950000CBD0000001002400020024010B54FF412
:1009600080710948FFF718FD08A000F083F96420A2
:10097000FFF773FC4FF480710348FFF70DFD09A0EA
:10098000FFF76AFE10BD0000000C014054656D7059
:1009900072657475726520697320746F6F20686961
:1009A00067680000416C45525421210008B50121BF
:1009B0000820FFF7E5FE4FF48070ADF8000010202E
:1009C0008DF8030001208DF8020069460248FFF708
:1009D0004FFC00F003F808BD000C014010B54FF4C7
:1009E00080710248FFF7DAFC10BD0000000C0140E6
:1009F00010B51348006840F001001149086008462E
:100A00004068104908400E494860084600680E4991
:100A100008400B4908600846006820F48020086000
:100A20000846406820F4FE0048604FF41F008860CC
:100A3000FFF720FF4FF000600449086010BD000080
:100A4000001002400000FFF8FFFFF6FE08ED00E096
:100A500021B1828942F40052828104E082894DF6FC
:100A6000FF731A408281704702460020B1F5007F73
:100A700000D100BF13880B400BB1012000E0002023
:100A8000704700002DE9F04786B005460E46002469
:100A9000A24600BFA1460027B08900B100BF2F4683
:100AA0002C8A4CF6FF700440F08804432C82AC89F9
:100AB0004EF6F3100440B088318908437189084329
:100AC0000443AC81AC8A4FF6FF400440B089044334
:100AD000AC8201A8FFF764FE1F48874202D1DDF80F
:100AE00010A001E0DDF80CA0A88900F4004040B19E
:100AF0000AEBCA0000EB0A1031684900B0FBF1F8BC
:100B000007E00AEBCA0000EB0A1031688900B0FB6D
:100B1000F1F86420B8FBF0F004012009642101FB26
:100B20001089A88900F4004040B1322000EBC900D0
:100B3000B0FBF1F000F00700044308E0322000EBC6
:100B400009106421B0FBF1F000F00F0004432C8188
:100B500006B0BDE8F087000000380140C1F308028C
:100B60008280704710B586B00446012144F205002A
:100B7000FFF706FE4FF40070ADF8140001208DF869
:100B8000160018208DF8170005A90D48FFF770FB17
:100B900001940020ADF80800ADF80A00ADF80C0093
:100BA000ADF810000820ADF80E0001A90548FFF7C8
:100BB00069FF01210348FFF74BFF06B010BD00009D
:100BC00000080140003801402DE9F04105462C465F
:100BD00020211148FFF7E0FB002619E0274607F027
:100BE0008007802F04D180210B48FFF7D7FB03E05B
:100BF00080210948FFF7D0FB6006040E202106483B
:100C0000FFF7CCFB20210448FFF7C6FB701CC6B2DF
:100C1000082EE3DBBDE8F0810008014010B5044672
:100C2000FFF7C4FB7820FFF7CFFFFFF7E3FB0020BF
:100C3000FFF7CAFFFFF7DEFB2046FFF7C5FFFFF710
:100C4000D9FBFFF7C7FB10BD10B50446FFF7AEFB9D
:100C50007820FFF7B9FFFFF7CDFB4020FFF7B4FF87
:100C6000FFF7C8FB2046FFF7AFFFFFF7C3FBFFF717
:100C7000B1FB10BD0FB4054B10B503A9044A02988F
:100C800000F02CF810BC5DF814FB0000650E0008A5
:100C9000140000200FB4084B10B504A902AA039851
:100CA00000F01CF8044602A9002000F0C1F820461C
:100CB00010BC5DF814FB0000310E000802E008C80B
:100CC000121F08C1002AFAD170477047002001E0C6
:100CD00001C1121F002AFBD1704700002DE9FF4F10
:100CE00089B09B460446002506E025280BD05A46CD
:100CF0000B999047641C6D1C20780028F5D10DB02D
:100D00002846BDE8F08F0027B8460122474900E099
:100D1000074314F8013F203B02FA03F00842F7D1E1
:100D200020782E2819D114F8010F47F004072A283B
:100D30000ED06FF02F022078A0F1300109290CD8D5
:100D400008EB880102EB410100EB0108641CF2E7AB
:100D50000A98641C50F8048B0A9020780028CED0A2
:100D6000642808D0692806D075281ED05A460B99E9
:100D700090476D1C58E00A994FF00A0901C90A9181
:100D8000002802DA40422D2102E0390504D52B214A
:100D90008DF82010012103E0F90704D02021F7E7A6
:100DA0008A4608AE0DE00021FAE70A994FF00A09D9
:100DB00001C90A91F7E74946FFF7B4F9303106F85F
:100DC000011D0028F7D1ADEB060000F120097807DE
:100DD00001D44FF00108C84502DDA8EB090000E08E
:100DE00000208046002706E008A85A46C05D0B99FF
:100DF00090476D1C7F1C5745F6DB04E030205A46B7
:100E00000B9990476D1CB8F10001A8F10108F5DCC1
:100E100005E016F8010B5A460B9990476D1CB9F185
:100E20000001A9F10109F4DC641C65E7092801004F
:100E30000A68531C0B6010707047014606E00020E2
:100E400000E0401C41F672729042FADB0A1EA1F1EA
:100E50000101F4D17047642000BF011EA0F1010020
:100E6000FBD1704770B504460D46E0B200F0FEF8C5
:100E7000204670BD2DE9FC4706460F460020009035
:100E80000190FFF7A3F9012853D1002433E0002596
:100E90002EE000BF20212848FFF775FA0028F9D07E
:100EA00020212548FFF76FFA012816D1FFF7D3FF5D
:100EB000FFF7D1FFFFF7CFFF20211F48FFF763FAAD
:100EC000012801D1814601E04FF0000900BF202137
:100ED0001948FFF758FA0128F9D01DF80400C5F1A8
:100EE000070109FA01F10843C0B20DF804006D1CB6
:100EF000082DCEDB641C052CC9DB9DF800009DF895
:100F0000011008449DF8021008449DF8031008449D
:100F100000F0FF089DF80400404506D19DF8000050
:100F200030609DF80200386002E00020BDE8FC87D8
:100F300000BF0120FAE70000000C01408AB0002445
:100F40004FF4E130FFF70EFEFFF7AAFAFFF72EFD90
:100F5000FFF75CFA53E008A909A8FFF78BFF0446E6
:100F60001CB927A0FFF786FE49E009985A2809DD39
:100F7000FFF7F4FC24A0FFF76FFBFFF767FA1420DC
:100F8000FFF76BF90898282806DD25A0FFF764FB1A
:100F90001420FFF762F903E0FFF720FDFFF74CFA9A
:100FA00024A104A8099AFFF775FEFFF759FA102348
:100FB00004AA00210846FFF7B9FB0A20FFF74DF904
:100FC0001FA16846089AFFF765FEFFF749FA10234C
:100FD00004AA00210846FFF7A9FB10236A46022154
:100FE0000020FFF7A3FB0A20FFF737F917A00999A4
:100FF000FFF740FE19A00899FFF73CFE00BFAAE7E3
:101000004572726F720D0A0054656D70657261747D
:1010100075726520746F6F20686967682100000031
:1010200048756D696469747920746F6F20686967A9
:101030006821000054656D703A202564204300004B
:1010400048756D693A2025642025250054656D702A
:10105000203D20256420430D0A00000048756D697D
:10106000203D2025642025250D0A000010B50446EA
:1010700021460548FFF772FD00BF40210248FFF7F7
:10108000F3FC0028F9D010BD00380140000000003A
:1010900000000000002F00000000070007000014FF
:1010A0007F147F1400242A7F2A120062640813230D
:1010B00000364955225000000503000000001C22A4
:1010C0004100000041221C000014083E08140008E2
:1010D000083E0808000000A0600000080808080892
:1010E000000060600000002010080402003E51492A
:1010F000453E0000427F40000042615149460021C8
:1011000041454B31001814127F10002745454539E1
:10111000003C4A494930000171090503003649493C
:10112000493600064949291E0000363600000000F5
:101130005636000000081422410000141414141440
:1011400000004122140800020151090600324959E9
:10115000513E007C1211127C007F49494936003E05
:1011600041414122007F4141221C007F49494941C0
:10117000007F09090901003E4149497A007F0808BA
:10118000087F0000417F4100002040413F01007F77
:1011900008142241007F40404040007F020C027F43
:1011A000007F0408107F003E4141413E007F090955
:1011B0000906003E4151215E007F0919294600467B
:1011C000494949310001017F0101003F4040403F52
:1011D000001F2040201F003F4038403F006314089C
:1011E0001463000708700807006151494543000077
:1011F0007F41410000552A552A55000041417F009A
:10120000000402010204004040404040000001028E
:101210000400002054545478007F48444438003877
:101220004444442000384444487F003854545418FF
:1012300000087E0901020018A4A4A47C007F080411
:1012400004780000447D4000004080847D00007FE1
:10125000102844000000417F4000007C04180478FE
:10126000007C0804047800384444443800FC2424FA
:1012700024180018242418FC007C080404080048E2
:101280005454542000043F444020003C4040207C03
:10129000001C2040201C003C4030403C00442810F2
:1012A0002844001CA0A0A07C004464544C441414A6
:1012B00014141414000000000000000000000000DE
:1012C00000000000000000F80000000000000033F3
:1012D0003000000000100C06100C0600000000009A
:1012E0000000000040C07840C0784000043F040483
:1012F0003F040400007088FC08300000001820FF44
:10130000211E0000F008F000E018000000211C037E
:101310001E211E0000F00888700000001E212324FA
:101320001927211010160E00000000000000000018
:1013300000000000000000E01804020000000007A8
:101340001820400000020418E000000000402018AF
:1013500007000000404080F0804040000202010F82
:1013600001020200000000F0000000000101011F66
:1013700001010100000000000000000080B07000CA
:10138000000000000000000000000000000101015A
:1013900001010101000000000000000000303000E9
:1013A00000000000000000008060180400601806C3
:1013B0000100000000E010080810E000000F1020FD
:1013C00020100F00001010F8000000000020203F47
:1013D00020200000007008080888700000302824D1
:1013E0002221300000300888884830000018202072
:1013F00020110E000000C02010F800000007042497
:10140000243F240000F808888808080000192120DB
:1014100020110E0000E0108888180000000F112035
:1014200020110E0000380808C83808000000003FEE
:10143000000000000070880808887000001C22214D
:1014400021221C0000E010080810E00000003122FA
:1014500022110F00000000C0C0000000000000309A
:1014600030000000000000800000000000008060EC
:10147000000000000000804020100800000102046D
:101480000810200040404040404040000404040454
:101490000404040000081020408000000020100810
:1014A00004020100007048080808F0000000003045
:1014B00036010000C030C828E810E00007182724D3
:1014C00023140B000000C038E0000000203C230281
:1014D0000227382008F8888888700000203F2020E4
:1014E00020110E00C0300808080838000718202016
:1014F0002010080008F808080810E000203F20200D
:1015000020100F0008F88888E8081000203F2020ED
:101510002320180008F88888E8081000203F2000E1
:1015200003000000C0300808083800000718202019
:10153000221E020008F808000008F808203F2101D8
:1015400001213F20000808F8080800000020203F83
:101550002020000000000808F8080800C0808080F3
:101560007F00000008F888C028180800203F2001EC
:101570002638200008F8080000000000203F202046
:101580002020300008F8F800F8F80800203F003F5D
:10159000003F200008F830C00008F808203F200075
:1015A00007183F00E01008080810E0000F10202086
:1015B00020100F0008F808080808F000203F21015B
:1015C00001010000E01008080810E0000F182424B2
:1015D00038504F0008F8888888887000203F200025
:1015E000030C3020007088080808380000382021DB
:1015F00021221C00180808F8080818000000203FE5
:101600002000000008F808000008F808001F20204B
:1016100020201F000878880000C83808000007381C
:101620000E010000F80800F80008F800033C07006D
:10163000073C0300081868808068180820302C03D5
:10164000032C30200838C800C83808000000203FAC
:101650002000000010080808C8380800203826219B
:1016600020201800000000FE020202000000007F9F
:1016700040404000000C30C00000000000000001AD
:101680000638C00000020202FE0000000040404098
:101690007F000000000004020202040000000000BD
:1016A000000000000000000000000000808080803A
:1016B0008080808000020204000000000000000022
:1016C00000000000000080808080000000192422BB
:1016D00022223F2008F8008080000000003F1120F7
:1016E00020110E000000008080800000000E1120FC
:1016F00020201100000000808088F800000E1120DA
:1017000020103F200000808080800000001F2222E7
:1017100022221300008080F0888888180020203F53
:10172000202000000000808080808000006B949466
:101730009493600008F8008080800000203F210022
:1017400000203F2000809898000000000020203FEB
:1017500020200000000000809898000000C08080D9
:10176000807F000008F8000080808000203F240275
:101770002D302000000808F8000000000020203F65
:10178000202000008080808080808000203F20001A
:101790003F20003F8080008080800000203F2100AB
:1017A00000203F200000808080800000001F20205B
:1017B00020201F00808000808000000080FFA1208A
:1017C00020110E000000008080808000000E11209B
:1017D00020A0FF80808080008080800020203F212A
:1017E00020000100000080808080800000332424DD
:1017F00024241900008080E0808000000000001F89
:10180000202000008080000000808000001F202039
:1018100020103F20808080000080808000010E30FA
:101820000806010080800080008080800F300C035B
:101830000C300F0000808000808080000020312E5E
:101840000E312000808080000080808080818E703A
:101850001806010000808080808080000021302CEC
:101860002221300000000000807C02020000000005
:10187000003F404000000000FF00000000000000AA
:10188000FF0000000002027C800000000040403F9A
:101890000000000000060101020204040000000034
:1018A00000000000C418000800000020180000001C
:1018B000BC0C0008DC18000818000020000800001C
:1018C000CC0C000800000000010203040102030424
:0C18D000060708090204060800000000DA
:04000005080000ED02
:00000001FF
